:100000000C9434000C945B000C945B000C945B002B
:100010000C945B000C945B000C945B000C945B00F4
:100020000C945B000C9468110C945B000C94791197
:100030000C945B000C945B000C945B000C945B00D4
:100040000C945C110C945B000C9439010C94E80046
:100050000C945B000C945B000C945B000C945B00B4
:100060000C945B000C945B00EAEAF6E085EC98E007
:1000700001C08193EF3FF907E0F3D9F311241FBECC
:10008000CFEFD8E0DEBFCDBF11E0A0E0B1E0EEEBF6
:10009000F3E302C005900D92A230B107D9F726E034
:1000A000A2E0B1E001C01D92AA3AB207E1F70E94B6
:1000B0005D000C94DD190C94000078940E948C0073
:1000C0000E9462020E948B0E0E94FC100E94A30EEE
:1000D0000E94CF0E0E943F0490E080E008951092AD
:1000E0000301109202010895909109019F5F9038D9
:1000F00009F490E0209108012917E1F3E09109014A
:10010000F0E0E65DF94F8083909309018091C10092
:1001100080628093C10008951092C50080E18093B1
:10012000C400E0ECF0E080818D7F8083E1ECF0E0C2
:100130008081806180838081886080838081806805
:1001400080838EE70C947400CF92DF92EF92FF923F
:10015000CF93C82FCB01BA0120E030E04AE754E446
:100160000E94B1180E947E186B017C0128EFF21AE0
:100170008C2D80680E947400D701C60127E0B695D7
:10018000A795979587952A95D1F780680E94740066
:10019000D701C6013EE0B695A795979587953A9504
:1001A000D1F780680E947400D701C60145E1B69579
:1001B000A795979587954A95D1F780680E94740016
:1001C0008C2FCF91FF90EF90DF90CF900C94740024
:1001D0001F920F920FB60F9211248F939F93EF935C
:1001E000FF9380910801909105019923B9F095E062
:1001F0009093C6001092050190910901981305C0D3
:100200008091C1008F7D8093C100FF91EF919F91FC
:100210008F910F900FBE0F901F901895E82FF0E070
:10022000E65DF94F90819093C6008F5F803809F4A6
:1002300080E080930801E0CFE0910A01F0E0E65D04
:10024000FA4F808190910A019F5F90930A019091EB
:1002500004019F5F90930401903151F491E09093D9
:1002600005019091C10090629093C1001092040129
:1002700008951F920F920FB60F9211242F933F9360
:100280004F935F936F937F938F939F93AF93BF939E
:10029000CF93EF93FF93C091C60080910001882314
:1002A000B1F010920001C0930701FF91EF91CF913F
:1002B000BF91AF919F918F917F916F915F914F917E
:1002C0003F912F910F900FBE0F901F90189581E0D6
:1002D00080930001809107018C1719F08DE30E9433
:1002E000C80FC031E8F481E2C13019F1C23069F4BD
:1002F000109203011092020110920A0110920B0158
:10030000109204010E94DA0FD0CFC33019F40E947A
:10031000A002CBCF83E2C43061F40E94A402C5CF17
:10032000E0910B0181E08E0F90910A01981304C0B7
:1003300082E20E94C80FB9CFF0E0E65DFA4FC083B9
:1003400080930B01B2CFCF93C1E080910301811163
:1003500015C010920601C1E090910A0180910B0135
:10036000981761F10E941C01803131F481E0809383
:1003700003011092020181E4CF910895809102015E
:10038000882371F01092060190910A0180910B016F
:10039000981749F00E941C01813111F41092030159
:1003A0000E94B402D2CF80910601811104C00E9444
:1003B000A802C09306010E94B402E6CF8091060114
:1003C000811104C00E94A802C09306010E94B402D9
:1003D000C3CF80910301882361F0809102018111D4
:1003E00008C090910A0180910B01981304C00E94EB
:1003F000A80280E808950E941C0187FDFBCF81318F
:1004000019F410920301F5CF83E20E94C80FF1CFD7
:1004100020910A0190910B0181E0291301C080E035
:10042000089581E08093020108950F931F93E1E105
:10043000F1E0638170E090E080E06058710981092B
:10044000910927E0660F771F881F991F2A95D1F71A
:10045000028110E030E020E0005811092109310943
:10046000600F711F821F931F37E0660F771F881F71
:10047000991F3A95D1F7018110E030E020E0005853
:10048000110921093109600F711F821F931F47E075
:10049000660F771F881F991F4A95D1F72081620F39
:1004A000711D811D911D60587109810998400E943C
:1004B000711720E030E04AE754E40E94C7161F910C
:1004C0000F910895E6E1F1E081E0808340E050E0A3
:1004D0006AEF75E4428353836483758316821782BF
:1004E000108611861286138614861586168640E0BD
:1004F00050E060EA70E44787508B618B728B438BCE
:10050000548B658B768B178A108E118E128E9CE021
:10051000E1E3F1E0DF01292F1D922A95E9F7EDE3F0
:10052000F1E0DF011D929A95E9F780931001809325
:100530000F0110920E0110920D0180930C0108958D
:1005400081E080931001089581E080930F01089568
:1005500080910D0190910E01019690930E01809370
:100560000D0110920C0108958F929F92AF92BF924D
:10057000CF92DF92EF92FF920F931F93CF9399B197
:1005800089B1282F221F2227221F92FB882780F95A
:10059000822B11F44B9B03C080E00E94AA0E0E94A4
:1005A000D70F882391F10E94310E0E94A5106B0194
:1005B0007C010E9494104B015C010E948310870112
:1005C0007601A50194010E94360E0E94831060936B
:1005D00025017093260180932701909328010E94A2
:1005E00094106093290170932A0180932B019093BA
:1005F0002C010E94A51060932D0170932E01809311
:100600002F019093300110921501809110018111FA
:1006100005C080910F01882309F425C110921001B3
:100620000E94070E811112C00E94080281110EC0A3
:100630000E94D70F81110AC081E40E94740083B721
:10064000816083BF889583B78E7F83BF99B189B15D
:10065000282F221F2227221F92FB882780F9822B16
:1006600019F082E40E9474004B9B03C083E40E9453
:1006700074000E94D40FC82F803211F00E947400C1
:10068000309B05C0C43219F084E20E947400319B93
:1006900005C0C53219F085E20E947400329B05C086
:1006A000C63219F086E20E947400339B05C0CA323C
:1006B00019F08AE20E9474000E94831020E030E06A
:1006C00040EA50E40E943E162091310130913201FF
:1006D00040913301509134010E943E16AB01BC01A0
:1006E00088E70E94A4000E94941020E030E040EAD5
:1006F00050E40E943E162091350130913601409120
:100700003701509138010E943E16AB01BC0189E7C8
:100710000E94A4000E94A5102091390130913A0155
:1007200040913B0150913C010E943E16AB01BC013F
:100730008AE70E94A40080910C01811110C0609191
:100740000D0170910E0190E080E00E946F17AB01E7
:10075000BC0187E70E94A40081E080930C01EAEAD3
:10076000F6E0BF016A5A76408081853C09F473C087
:1007700090E080E00E946F17AB01BC0185E70E940A
:10078000A40080910F01882309F457C010920F0133
:1007900040E050EE61EE74E486E70E94A4004091D0
:1007A000310150913201609133017091340181E641
:1007B0000E94A400409135015091360160913701AB
:1007C0007091380182E60E94A40040913901509155
:1007D0003A0160913B0170913C0183E60E94A400C4
:1007E000409118015091190160911A0170911B01FB
:1007F00087E60E94A40060911C0170E090E080E018
:100800000E946F17AB01BC0188E60E94A4004091D2
:100810001D0150911E0160911F017091200189E618
:100820000E94A40040912101509122016091230176
:10083000709124018AE60E94A40086E0CF911F9166
:100840000F91FF90EF90DF90CF90BF90AF909F906F
:100850008F900C94740088E0EF3FF80711F008F0D7
:1008600087CF31967ECFCF911F910F91FF90EF9060
:10087000DF90CF90BF90AF909F908F900895C1E38D
:10088000D1E08CE0982E772473940E94A301182F56
:100890000E94D70F882319F00E94B402F6CF17FDEB
:1008A00099C2EFEBE10FEA3108F038C1EF3008F000
:1008B00031C1F0E0E25AFB4F0C94A119D3046D044E
:1008C000C7049A04D604D904DC04E104E6041E0536
:1008D0004F058005840586058805A0901801B09015
:1008E0001901C0901A01D0901B01E0902D01F090E9
:1008F0002E0100912F01109130012091290130919A
:100900002A0140912B0150912C0160912501709199
:10091000260180912701909128011F921F921F921A
:100920001F9280901C010E949B080F900F900F90C7
:100930000F9039C0A0901801B0901901C0901A0111
:10094000D0901B01E0902D01F0902E0100912F011D
:10095000109130012091290130912A0140912B0101
:1009600050912C0160912501709126018091270101
:1009700090912801E0912401EF93E0912301EF93FE
:10098000E0912201EF93E0912101EF93CACF6091B2
:100990001D0170911E0180911F01909120014091D5
:1009A0001C010E94DE0D1092150176CF10921601E7
:1009B000FACF70921601F7CF80911601809317013C
:1009C000F2CF8091170180931601EDCF0E9432156E
:1009D000FE01892D11928A95E9F780E090E0A0EA66
:1009E000B0E48093250190932601A0932701B09352
:1009F00028018093290190932A01A0932B01B093A1
:100A00002C0110922D0110922E0110922F011092A4
:100A10003001A0901801B0901901C0901A01D09037
:100A20001B011F921F921F921F92812CE12CF12C0F
:100A300087019C01AD01CD01B90175CF80913101D4
:100A400090913201A0913301B091340180933D0126
:100A500090933E01A0933F01B093400180913501F6
:100A600090913601A0913701B091380180934101F6
:100A700090934201A0934301B093440180913901C6
:100A800090913A01A0913B01B0913C0180934501C6
:100A900090934601A0934701B093480184CF809181
:100AA0003D0190913E01A0913F01B09140018093A2
:100AB000310190933201A0933301B09334018091BE
:100AC000410190914201A0914301B0914401809372
:100AD000350190933601A0933701B093380180918E
:100AE000450190914601A0914701B0914801809342
:100AF000390190933A01A0933B01B0933C0153CF4D
:100B000082E00E94DF0D4FCF83E0FBCF84E0F9CF7E
:100B100085E0F7CF8CE30E94C80F45CF8FE9810FA6
:100B20008A3108F055C180911501843009F04EC119
:100B30001456173108F048C1E12FF0E0EE55FA4F96
:100B40000C94A1194E06E4063C06E40664069006E1
:100B5000BC06E406E406E406E406E4065906E406F8
:100B6000E4064706E406E406E406E406B905E505FE
:100B70001106109116010E9415021130D9F420E0DF
:100B800030E040EA50E40E943F169B01AC016091C6
:100B900031017091320180913301909134010E94B2
:100BA0003F1660932501709326018093270190934F
:100BB0002801F9CE9B01AC016091250170912601BD
:100BC0008091270190912801EACF109116010E948F
:100BD00015021130D9F420E030E040EA50E40E94E0
:100BE0003F169B01AC0160913501709136018091F7
:100BF0003701909138010E943F166093290170934C
:100C00002A0180932B0190932C01CDCE9B01AC0146
:100C10006091290170912A0180912B0190912C0102
:100C2000EACF109116010E9415021130D1F420E094
:100C300030E0A9010E943F169B01AC01609139018F
:100C400070913A0180913B0190913C010E943F16C6
:100C500060932D0170932E0180932F0190933001AA
:100C6000A2CE9B01AC0160912D0170912E0180916B
:100C70002F0190913001EACF0E9415026093180174
:100C80007093190180931A0190931B018CCE0E94DE
:100C900015020E94401760931C0185CE0E94150228
:100CA00060931D0170931E0180931F01909320019A
:100CB0007ACE0E94150260932101709322018093E5
:100CC0002301909324016FCE0E9415026B017C01D9
:100CD00080911601813059F4C0923101D0923201D5
:100CE000E0923301F09234015ECE0E94B4020E9481
:100CF000C50F8111FACF0E94831020E030E040EA56
:100D000050E40E943E16A70196010E943F16609390
:100D1000310170933201809333019093340143CEBB
:100D20000E9415026B017C0180911601813059F4FB
:100D3000C0923501D0923601E0923701F09238012D
:100D400032CE0E94B4020E94C50F8111FACF0E94D8
:100D5000941020E030E040EA50E40E943E16A701E3
:100D600096010E943F16609335017093360180937F
:100D700037019093380117CE0E9415026B017C0158
:100D800080911601813059F4C0923901D0923A0114
:100D9000E0923B01F0923C0106CE0E94B4020E9418
:100DA000C50F8111FACF0E94A5109B01AC01C701AC
:100DB000B6010E943F166093390170933A01809307
:100DC0003B0190933C01EFCD8EE3A5CE8AE3A3CE09
:100DD00083E2A1CEE0911501E43048F481E08E0F6A
:100DE00080931501F0E0EF5EFE4F108355CD8AE34E
:100DF0000E94C80F51CD4F925F926F927F928F9257
:100E00009F92AF92BF92CF92DF92EF92FF920F9399
:100E10001F93CF93DF93CDB7DEB762970FB6F894E9
:100E2000DEBF0FBECDBF9A8B898B2A013B015901D2
:100E3000FC0162897389848995890E946F176B010F
:100E40007C01A30192010E94B1180E94AB160E947E
:100E500040172B013C01E989FA8941A652A663A6F5
:100E600074A6A5019801C701B6010E94B1180E949D
:100E7000AB160E9440174B015C01E989FA8985A6EF
:100E800096A6A7A6B0AA21A932A943A954A9A0EE63
:100E9000BEE20E94A71969837A838B839C830E9498
:100EA00071176D837E838F839887C301B2010E947F
:100EB0006F172B013C01A7019601C701B6010E94E3
:100EC000B1186B017C01A3019201C301B2010E9420
:100ED000B11869877A878B879C872D813E814F81E6
:100EE0005885CA01B9010E943F166D877E878F879A
:100EF000988B29853A854B855C85C701B6010E9490
:100F00003E162D853E854F8558890E94C7160E9442
:100F1000AB160E9439172B013C01C501B4010E9498
:100F20006F179B01AC010E94B1184B015C01A70136
:100F300096010E943E166B017C0169817A818B814A
:100F40009C8190958095709561957F4F8F4F9F4FB5
:100F50000E9471179B01AC010E943F169B01AC01DE
:100F6000C701B6010E94C7160E94AC17E989FA8929
:100F7000C684D784E088F188A70196012419350931
:100F80004609570929833A834B835C830E943917AA
:100F900029813A814B815C81261B370B480B590B09
:100FA000DA01C901B7FF3BC0C701B6010E94711742
:100FB0002D853E854F8558890E94B11829853A852F
:100FC0004B855C850E943E16A50194010E943F1648
:100FD0004B015C0120E030E040E850E46D817E810F
:100FE0008F8198850E94B1189B01AC01C501B401A5
:100FF0000E94C7160E94AB160E94391797FF03C0C4
:1010000060E070E0CB0126013701641575058605A7
:10101000970514F42B013C0180E090E0DC01E989A4
:10102000FA8945AA56AA67AA70AE840D951DA61D19
:10103000B71D81AF92AFA3AFB4AF62960FB6F8946D
:10104000DEBF0FBECDBFDF91CF911F910F91FF90FB
:10105000EF90DF90CF90BF90AF909F908F907F9058
:101060006F905F904F9008954F925F926F927F9232
:10107000AF92BF92CF92DF92EF92FF920F931F93A6
:10108000CF93DF938C01EB01FC01428C538C648C79
:10109000758CAA8CBB8CCC8CDD8C9501A601C30110
:1010A000B2010E94C21687FF37C0A3019201C3019B
:1010B000B2010E94B1182B013C0120E03AEB4BE554
:1010C0005AECF80162A173A184A195A10E94B11804
:1010D0009B01AC01C301B2010E943E160E9424197B
:1010E0007B018C019B01AC01B501C6010E94C216B7
:1010F00087FF02C0750186019701A801B501C601ED
:101100000E94C216882341F0C701D8018A8F9B8FA5
:10111000AC8FBD8F81E08FA3DF91CF911F910F9195
:10112000FF90EF90DF90CF90BF90AF907F906F9047
:101130005F904F9008952F923F924F925F926F92DF
:101140007F928F929F92AF92BF92CF92DF92EF9257
:10115000FF920F931F93CF93DF93CDB7DEB7A49782
:101160000FB6F894DEBF0FBECDBF29013A01E98664
:10117000FA860B871C87A982BE82CF82D886C9AC2B
:10118000DAACEBACFCAC2CE137EC41EB52E40E9466
:10119000B1180E947E186D8B7E8B8F8B988F24E701
:1011A00031ED45EB52E4C301B2010E94B1180E9437
:1011B0007E18698F7A8F8B8F9C8F25E535E545E00A
:1011C00052E469857A858B859C850E94B1180E94BE
:1011D0007E186D8F7E8F8F8F98A3809166018F5FB1
:1011E00089878E3009F419864984042D440C110B2B
:1011F000809165018017110609F4CBC380916601C7
:10120000282E312C20E030E0A901C701B6010E9450
:10121000C216882309F4C0C381E4829D8001839DA6
:10122000100D112409591E4F81E0D8018C932CE137
:1012300037EC41EB52E4C701B6010E94B11820E03F
:1012400030E040E854E40E94B1180E947E18F80192
:10125000FD96608371838283938381E4829DF00194
:10126000839DF00D1124E959FE4F86A215868091C9
:10127000590190915A01A0915B01B0915C014D8898
:101280005E886F88788C481659066A067B0614F4C7
:1012900028E0258780905D0190905E01A0905F011D
:1012A000B0906001498C5A8C6B8C7C8C481459042A
:1012B0006A047B045CF421E4229DF001239DF00D7F
:1012C0001124E959FE4F258520612587C0906101D1
:1012D000D0906201E0906301F09064014D8C5E8CCF
:1012E0006F8C78A04C145D046E047F045CF421E4E0
:1012F000229DF001239DF00D1124E959FE4F258513
:10130000206225874D885E886F88788C481A590A34
:101310006A0A7B0AC301B20197FF07C0442455241F
:101320003201461A570A680A790A41E4429D90013F
:10133000439D300D112429593E4FD90111964D92EC
:101340005D926D927C921497098D1A8D2B8D3C8D38
:10135000081919092A093B09480159018A829B8207
:10136000AC82BD82B7FE0BC022273327A901281902
:1013700039094A095B092A833B834C835D8341E435
:10138000429D9001439D300D1124D901A959BE4FB2
:101390000A811B812C813D8115960D931D932D9300
:1013A0003C9318972D8D3E8D4F8D58A12C193D09DA
:1013B0004E095F0969017A01C98ADA8AEB8AFC8AD7
:1013C000F7FE0BC00027112798010C191D092E09E3
:1013D0003F09098B1A8B2B8B3C8BE1E4E29DA0012A
:1013E000E39D500D112449595E4F09891A892B89B3
:1013F0003C89DA0119960D931D932D933C931C970C
:101400004D865E866F86788A0A811B812C813D819C
:10141000401651066206730620F40D871E872F873B
:10142000388B4D845E846F84788829893A894B890A
:101430005C89421653066406750610F429013A01C8
:1014400021E4229D8001239D100D112409591E4F76
:10145000D8011E964D925D926D927C9251974114E7
:1014600051046104710409F490C30E9471172CE1C6
:1014700037EC41EB52E40E94C7166D877E878F8759
:10148000988BC501B4010E94711724E731ED45EB3B
:1014900052E40E94C716698B7A8B8B8B9C8BC70199
:1014A000B6010E94711725E535E545E052E40E943A
:1014B000C7164B015C012D853E854F855889CA01B1
:1014C000B9010E94B1186B017C0129893A894B89C5
:1014D0005C89CA01B9010E94B1189B01AC01C70126
:1014E000B6010E943F166B017C01A5019401C50164
:1014F000B4010E94B1189B01AC01C701B6010E9462
:101500003F160E9424196A837B838C839D83F80194
:1015100062A373A384A395A39B01AC0160E070E078
:1015200080E89FE30E94C7166B017C0189819E8140
:10153000AF81B885F801868B978BA08FB18FC301DF
:10154000B2010E9471172B013C0129813E814F811C
:101550005885C701B6010E94B118A30192010E94EB
:10156000B1180E94AB160E944017D80152966D9395
:101570007D938D939C935597A7019601C301B2016A
:101580000E94B11820E03AEB4BED59E40E94B118EB
:1015900020E030E84BE356E40E94C7160E94AB16E9
:1015A0000E944017F80161AB72AB83AB94ABA7010B
:1015B00096016D857E858F8598890E94B1186D870B
:1015C0007E878F87988BA701960169897A898B8995
:1015D0009C890E94B118698B7A8B8B8B9C8BA7019D
:1015E0009601C501B4010E94B1182B013C019091F4
:1015F000660180916501981709F4D8C1E09049010E
:10160000F0904A0100914B0110914C0120E030E034
:10161000A901B701C8010E94791818160CF0C6C1BB
:1016200060914D0170914E0180914F019091500158
:1016300090582D853E854F8558890E94B1184B01E1
:101640005C01209151013091520140915301509120
:10165000540169897A898B899C890E94B1189B0100
:10166000AC01C501B4010E943E164B015C01209102
:101670005501309156014091570150915801C301D5
:10168000B2010E94B1189B01AC01C501B4010E94D6
:101690003E164B015C0123E333E343E75FE30E9423
:1016A000C21687FF83C129813E814F815885B701CA
:1016B000C8010E94C21687FD04C0E980FE800F8128
:1016C000188523E333E343E75FEBC501B4010E94D0
:1016D00079181816C4F5A501940160E070E080E85F
:1016E0009FE30E943E1620E030E040E05FE30E946E
:1016F000B1180E9424194B015C0120E030EC48E253
:1017000056E40E94B11869A37AA38BA39CA3A501F8
:10171000940160E070E080E89FE30E943E169B0128
:10172000AC0169A17AA18BA19CA10E94C7160E945D
:1017300024195B016C019701A8010E947918181601
:1017400014F07501860181E4829DF001839DF00D06
:101750001124E959FE4FC701D801868F978FA0A3A6
:10176000B1A320E03AEB4BE55AEC6A817B818C8196
:101770009D810E94B1189B01AC0160E070E0CB013B
:101780000E943E160E9424195B016C019B01AC0172
:10179000B701C8010E94C21687FD02C0750186010B
:1017A00021E4229DC001239D900D11249C01295903
:1017B0003E4F4901C701D801F901828F938FA48F51
:1017C000B58F9501A60169817E818F8198850E94E0
:1017D000C21618160CF4EFC081E0D40198968C93D1
:1017E00081E4829DF001839DF00D1124E959FE4FA3
:1017F00081E087A30D851E852F85388900934D01D3
:1018000010934E0120934F013093500129893A895A
:101810004B895C89209351013093520140935301CD
:1018200050935401409255015092560160925701D5
:101830007092580189819E81AF81B885809349015A
:1018400090934A01A0934B01B0934C01498440927C
:1018500066014D885E886F88788C4092590150925D
:101860005A0160925B0170925C01498C5A8C6B8CBE
:101870007C8C40925D0150925E0160925F0170929B
:1018800060014D8C5E8C6F8C78A04092610150920B
:1018900062016092630170926401F0906601F0E071
:1018A000E0E010E000E0209165018F2D0F2C000C8E
:1018B000990B2817190609F081C0F090650110E016
:1018C00000E090E080E021E4E22E409166012F2DBF
:1018D0000F2C000C330B4217130609F0EDC00097D4
:1018E00059F00115110541F0DC0198962C91211158
:1018F00003C0B8010E943408D0906501F12CE12C9E
:1019000081E4C82E8D2D0D2C000C990B20916601C1
:101910002817190609F0EDC0D70156968D909D90B5
:10192000AD90BC905997A501940160E070E0CB01A7
:101930000E94C7162B013C01A5019401F701628D9D
:10194000738D848D958D0E94C716AB01BC019301E8
:101950008201C7010E94FB06D70197961C92A496AC
:101960000FB6F894DEBF0FBECDBFDF91CF911F91B0
:101970000F91FF90EF90DF90CF90BF90AF909F902E
:101980008F907F906F905F904F903F902F900C942E
:10199000A70F0E94B4022CCC81E4829DF001839DAC
:1019A000F00D1124E959FE4F108257CCE12CF12C97
:1019B00000E010E0C8CEF40110A612CFF11002C072
:1019C0003EE0F32EFA942F2D31E42302C0011124BE
:1019D000AC0149595E4F4A010115110509F465C072
:1019E000309709F462C0D80198968C9198975E96CA
:1019F0002C905E975F963C905F979096AC909097F6
:101A000091964C904982811153C0B22CC32CDA2C90
:101A1000E42C428C538C648C758CA3019201622D52
:101A2000732D8A2D9E2D0E94791818160CF040C037
:101A3000A3019201C301B2010E94B1182B013C0124
:101A400020E03AEB4BE55AECD80192966D917D91EE
:101A50008D919C9195970E94B1189B01AC01C30197
:101A6000B2010E943E160E942419562E672E782E2F
:101A7000A92E262F372F482F592F622D732D8D2DEC
:101A80009E2D0E94C21687FD03C0B52C6301EA2C6F
:101A90008B2D9C2DAD2DBE2DF801828F938FA48FA1
:101AA000B58FE1E0D8019796EC93F8018401FBCE65
:101AB000C101AA2DB981F0CFFF2D4E2DF402900166
:101AC0001124D901A959BE4F6D01009751F001159C
:101AD000110539F0FC0120A5211103C0B8010E94B5
:101AE0003408F394FEE0FF1201C0F12CC801860116
:101AF000ECCEBD2DEC2DBE029001112489010959B7
:101B00001E4F1801E114F104C9F1D70197962C91E9
:101B100021110AC0C89EF001C99EF00D1124E95997
:101B2000FE4F27A1222351F1F70146885788608C88
:101B3000718CC89EF001C99EF00D1124E959FE4F29
:101B4000A3019201628D738D848D958D0E94C716BD
:101B50004B015C01A3019201D7015A966D917D91D1
:101B60008D919C915D970E94C716AB01BC019501B8
:101B70008401C7010E94FB06F70117A2D394FEE07F
:101B8000DF1201C0D12C7101BDCEA4960FB6F8941E
:101B9000DEBF0FBECDBFDF91CF911F910F91FF90A0
:101BA000EF90DF90CF90BF90AF909F908F907F90FD
:101BB0006F905F904F903F902F90089508950F93EE
:101BC0001F93CF93DF93D82FC0916601CF5FCE30A4
:101BD00009F4C0E00C2F0C2E000C110B8091650154
:101BE0008017110689F0E091660181E4E89FF00119
:101BF0001124E959FE4FD083C0936601DF91CF9144
:101C00001F910F910C94A70F0E94B402E7CF20916F
:101C100066019091650181E0291301C080E008957B
:101C20009091660180916501981749F08091650156
:101C300021E4829FC001112489599E4F089590E0AC
:101C400080E008959091660180916501981741F0B8
:101C5000809165018F5F8E3009F480E0809365018B
:101C60000895809166018093650108958F929F92F7
:101C7000AF92BF92CF92DF92EF92FF920F931F939A
:101C8000CF93DF9349015A0167012CE137EC41EB17
:101C900052E40E94B1180E947E18C9E5D1E0688321
:101CA00079838A839B8324E731ED45EB52E4C501B8
:101CB000B4010E94B1180E947E186C837D838E83CC
:101CC0009F8325E535E545E052E4C801B6010E9451
:101CD000B1180E947E18688779878A879B8710923F
:101CE000490110924A0110924B0110924C01EDE40F
:101CF000F1E08CE0DF011D928A95E9F7DF91CF9149
:101D00001F910F91FF90EF90DF90CF90BF90AF9019
:101D10009F908F900895EF92FF920F931F931092D0
:101D2000660110926501E12CF12C870120E030E082
:101D300040EA50E4CA01B9010E94360E1F910F918A
:101D4000FF90EF9008958AB183778AB987B1807C3C
:101D500087B9089529B199B1392F331F3327331F1C
:101D600022FB992790F9932B21F44B9902C0811102
:101D700004C01092F5045D9808958093F5040895C9
:101D80008091F5040895882311F05C9A08955C9879
:101D90000895882311F05E9A08955E980895559AE3
:101DA00014BC15BCEEE6F0E080818160808316BC37
:101DB000549A80E00E94C30E569A80E00C94C90E9B
:101DC0008091FE049091FF04A0910005B09101055F
:101DD000409102055091030560910405709105053D
:101DE000840F951FA61FB71F813828E3920721E0B3
:101DF000A207B10550F48093FE049093FF04A093D2
:101E00000005B093010580E0089580589843A140F3
:101E1000B1098093FE049093FF04A0930005B09352
:101E2000010581E008959B01AC01203486E038076C
:101E30004105510520F420E436E040E050E060E048
:101E400070E788E399E30E947F19B90190E02115BA
:101E5000310581E048075105B0F02115310588E0D2
:101E60004807510520F563E0569547953795279526
:101E70006A95D1F7B901E3E0220F331F441F551FC4
:101E8000EA95D1F791E080918100887F9F5F892B4F
:101E900080938100709389006093880020930205ED
:101EA000309303054093040550930505089586E09B
:101EB00056954795379527958A95D1F7B90196E0BC
:101EC000220F331F441F551F9A95D1F792E0DBCFA5
:101ED000CF92DF92EF92FF92CF93DF93C0911C05D8
:101EE000D0911D050E946F176B017C016A897B8967
:101EF0008C899D890E946F179B01AC01C701B601B7
:101F00000E94C71623E333E343E75FE30E94B1185F
:101F10002DEC3CEC4CE45DE30E943F166B017C0130
:101F20006EA170E090E080E00E9471179B01AC010F
:101F3000C701B6010E94B1180E944017862FDF9199
:101F4000CF91FF90EF90DF90CF900C94AA0E8091EC
:101F5000F90481110BC081E08093F90488E080933B
:101F60001B0580916F00826080936F00089510922E
:101F7000F90410921D0510921C05EFE6F0E0808137
:101F80008D7F808380E00C94AA0E8091F9040895DF
:101F90009091F804911107C08093F70481E0809339
:101FA000F8040C946F0008958091F70408958091CF
:101FB000F804089580E28093F7041092F8040895DD
:101FC0004F925F926F927F928F92AF92BF92CF9219
:101FD000DF92EF92FF920F931F93CF93DF93CDB7D2
:101FE000DEB72C970FB6F894DEBF0FBECDBF698366
:101FF0007A838B839C8329013A01ED82FE820F83D1
:102000001887A986BA86CB86DC868091F90481116F
:1020100071C0E12CF12C8701A8019701C801B7011B
:102020000E94360EEEE1F5E08CE0DF011D928A950C
:10203000E9F71F921F921F921F92812CAE8CBF8CCA
:10204000C8A0D9A0A301920169817A818B819C816A
:102050000E949B080F900F900F900F908091F904B1
:1020600081114BC0E12CF12C8701A8019701C80117
:10207000B7010E94360EEEE1F5E08CE0DF011D9223
:102080008A95E9F70E94DA0F81E08093F6041F92A7
:102090001F921F921F92812CAE8CBF8CC8A0D9A01A
:1020A00029853A854B855C856D817E818F819885F8
:1020B0000E949B080F900F900F900F908091F90451
:1020C00081111EC01092F6042C960FB6F894DEBF54
:1020D0000FBECDBFDF91CF911F910F91FF90EF9079
:1020E000DF90CF90BF90AF908F907F906F905F9078
:1020F0004F9008950E94B40288CF0E94B402AECFE0
:102100000E94B402DBCF60911E0570911F05809183
:102110002005909121050E9471172CE137EC41EBCD
:1021200052E40E94C716089560912205709123051C
:1021300080912405909125050E94711724E731EDC7
:1021400045EB52E40E94C7160895609126057091F0
:10215000270580912805909129050E94711725E592
:1021600035E545E052E40E94C71608958F929F928C
:10217000AF92BF92CF92DF92EF92FF920F931F9395
:10218000CF93DF9349015A0167012CE137EC41EB12
:1021900052E40E94B1180E947E18CEE1D5E0688317
:1021A00079838A839B8324E731ED45EB52E4C501B3
:1021B000B4010E94B1180E947E186C837D838E83C7
:1021C0009F8325E535E545E052E4C801B6010E944C
:1021D000B1180E947E18688779878A879B87DF916C
:1021E000CF911F910F91FF90EF90DF90CF90BF9014
:1021F000AF909F908F900895EF92FF920F931F934F
:1022000084B18F6384B985B1807C886085B9E1E849
:10221000F0E080818F7E8083808188608083E0E829
:10222000F0E080818D7F808380818E7F80838081BC
:102230008F73808380818F7C80831092B000109296
:10224000B100E0E7F0E080818160808360E476E0C7
:1022500080E090E00E94130F80E00E94AA0EEEE161
:10226000F5E08CE0DF011D928A95E9F7E12CF12C75
:10227000870120E030E040EA50E4CA01B9010E9441
:10228000B6101092FE041092FF04109200051092F6
:10229000010510921D0510921C051092F80480E2B1
:1022A0008093F704109206051092F6041F910F9187
:1022B000FF90EF900C94B70F1F920F920FB60F92F2
:1022C00011245D9815BC0F900FBE0F901F901895AC
:1022D0001F920F920FB60F9211248F9385B1887FB2
:1022E00085B91092B1008F910F900FBE0F901F9083
:1022F00018951F920F920FB60F921124CF92DF9272
:10230000EF92FF920F931F932F933F934F935F93FF
:102310006F937F938F939F93AF93BF93CF93DF93ED
:10232000EF93FF938091060581110DC081E08093AA
:1023300006058091F8048823F9F00E94B70F0E94E7
:10234000310E10920605FF91EF91DF91CF91BF9171
:10235000AF919F918F917F916F915F914F913F913D
:102360002F911F910F91FF90EF90DF90CF900F90E2
:102370000FBE0F901F9018958091F604811122C016
:1023800099B189B1282F221F2227221F92FB88276B
:1023900080F9822B11F44B9B03C080E00E94AA0EAF
:1023A000309B04C084E20E94C80FCBCF319B02C097
:1023B00085E2F9CF329B02C086E2F5CF339B02C0A3
:1023C0008AE2F1CF0E94C00E90910101903188F510
:1023D000809101018F5F8093010125B190911B05D0
:1023E000987385B1877C892B85B928732913A9CF68
:1023F00085B1887F90911B05892B85B98AEF8093E1
:10240000B20082E08093B100789480911C05909195
:102410001D05892B09F0D6C00E94100EEC01909387
:102420001D0580931C05892B09F06AC00E94B70F17
:1024300088CF811103C05D9881E0CDCF15BC5D9A36
:10244000823FD0F7209102053091030540910405A9
:1024500050910505232F342F452F552790E1899F53
:10246000D00111240E94B219AB01BC01DC01CA01E8
:1024700021E04F3F510561057105F1F1E8F1C3E03D
:10248000B695A79597958795CA95D1F722E08F3F86
:102490009105A105B10581F178F1DB01CA01F6E0F2
:1024A000B695A79597958795FA95D1F723E08F3F35
:1024B0009105A105B10501F1F8F0BB27A72F962FD3
:1024C000852F24E08F3F9105A105B105A9F0A0F06B
:1024D000DB01CA013AE0B695A795979587953A959D
:1024E000D1F78F3F9105A105B10529F020F08FEFBD
:1024F00090E0A0E0B0E025E0819586BD25BD9CCFB1
:102500008881823008F05EC0C9A4DAA4EBA4FCA4E0
:10251000C092FA04D092FB04E092FC04F092FD0415
:1025200080E49CE9A0E0B0E08093FE049093FF0477
:10253000A0930005B0930105C701B6010E94130FD7
:102540008881813009F051C080E00E94AA0E10926B
:102550000705109208051092090510920A05E091EE
:102560001C05F0911D0586859785A089B189B595D3
:10257000A79597958795B095A095909581959F4F34
:10258000AF4FBF4F8093170590931805A09319057F
:10259000B0931A058093130590931405A093150525
:1025A000B093160580930F0590931005A093110525
:1025B000B093120510920B0510920C0510920D05A8
:1025C00010920E05C0911C05D0911D052881223066
:1025D00009F43EC278F0243009F440C208F43CC249
:1025E000253009F0AECE80E03AC2C701B6010E94A4
:1025F000680FB5CF3D8530931B0589819A81AB81EA
:10260000BC81409117055091180560911905709192
:102610001A05840F951FA61FB71F80931705909367
:102620001805A0931905B0931A054E855F85688932
:102630007989181619061A061B0624F5316030939D
:102640001B05841B950BA60BB70B80931705909366
:102650001805A0931905B0931A0580911E05909155
:102660001F05A0912005B091210533FFFEC0019701
:10267000A109B10980931E0590931F05A093200521
:10268000B09321058D819E81AF81B885C0901305DF
:10269000D0901405E0901505F09016058C0D9D1D49
:1026A000AE1DBF1D8093130590931405A0931505CF
:1026B000B0931605181619061A061B0634F5309144
:1026C0001B05326030931B05841B950BA60BB70BC3
:1026D0008093130590931405A0931505B0931605E8
:1026E0008091220590912305A0912405B0912505A4
:1026F00034FFBFC00197A109B109809322059093CF
:102700002305A0932405B093250589859A85AB857B
:10271000BC85C0900F05D0901005E0901105F09099
:1027200012058C0D9D1DAE1DBF1D80930F0590934E
:102730001005A0931105B0931205181619061A0674
:102740001B0634F530911B05346030931B05841B48
:10275000950BA60BB70B80930F0590931005A093D4
:102760001105B09312058091260590912705A0913F
:102770002805B091290535FF80C00197A109B1094D
:102780008093260590932705A0932805B0932905EB
:10279000C0900B05D0900C05E0900D05F0900E0553
:1027A0008FEFC81AD80AE80AF80AC0920B05D0922F
:1027B0000C05E0920D05F0920E0580911B0598E046
:1027C000892780931B05C416D506E606F70608F090
:1027D00034C18DA99EA9AFA9B8ADC816D906EA061D
:1027E000FB0608F04EC00E94E00E882309F4A9CD34
:1027F00089A99AA9ABA9BCA94091FA045091FB04FC
:102800006091FC047091FD04840F951FA61FB71FF3
:102810008093FA049093FB04A093FC04B093FD040E
:102820004A895B896C897D89481759076A077B0744
:1028300040F44093FA045093FB046093FC047093BB
:10284000FD04C090FA04D090FB04E090FC04F090EA
:10285000FD04C701B6010E94130F8881813009F081
:1028600072C080E00E94AA0E6CCD0196A11DB11D20
:1028700001CF0196A11DB11D40CF0196A11DB11D33
:102880007FCF89AD9AADABADBCADC816D906EA060F
:10289000FB0669F480E49CE9A0E0B0E08093FE04CC
:1028A0009093FF04A0930005B09301054ACDC8168C
:1028B000D906EA06FB0608F44BC00E94E00E882306
:1028C00009F43FCD49A95AA96BA97CA98091FA04C2
:1028D0009091FB04A091FC04B091FD0448175907A6
:1028E0006A077B0738F5841B950BA60BB70B809303
:1028F000FA049093FB04A093FC04B093FD048DA50F
:102900009EA5AFA5B8A94091FA045091FB0460912F
:10291000FC047091FD04481759076A077B0708F00B
:1029200090CF8093FA049093FB04A093FC04B0939F
:10293000FD0487CF1092FA041092FB041092FC045D
:102940001092FD04DCCFC701B6010E94680FF9CCDC
:102950006A897B898C899D890091FA041091FB0416
:102960002091FC043091FD046017710782079307E2
:1029700051F06093FA047093FB048093FC049093ED
:10298000FD040E94130F8881813009F054C09AE041
:10299000CC0CDD1CEE1CFF1C9A95D1F7809107052D
:1029A00090910805A0910905B0910A05892B8A2B01
:1029B0008B2B41F4C0920705D0920805E0920905DF
:1029C000F0920A05409107055091080560910905AC
:1029D00070910A05C416D506E606F70608F4B1CCD0
:1029E000ED9688819981AA81BB81840F951FA61FCE
:1029F000B71F8093070590930805A0930905B0932E
:102A00000A05F8940E94E9017894482F4058550B24
:102A10009A01220F331FE0911C05F0911D0546A17C
:102A2000429FC001439F900D11246FEF70E00E9400
:102A30006B19862F17CF8EA115CF213011F40E946C
:102A4000110210921D0510921C050E94220E79CCD5
:102A500081E00E94C30EF5CF80E0FBCF81E00E94B1
:102A6000C90EEFCF8F929F92AF92BF92CF92DF921B
:102A7000EF92FF920F931F93CF93DF938091F9040E
:102A80008111F6C0E12CF12C8701A8019701C80142
:102A9000B7010E94360EEEE1F5E08CE0DF011D92F9
:102AA0008A95E9F781E08093F604309B17C01F9266
:102AB0001F921F921F92812CA12CB12CE8E4CE2EE4
:102AC000E4E4DE2EA801970160E070E080EA91E482
:102AD0000E949B080F900F900F900F90319B1AC08F
:102AE0001F921F921F921F92812CA12CB12C78E46F
:102AF000C72E74E4D72EE12CF12C8701A801970191
:102B000060E070E080EA91EC0E949B080F900F90CB
:102B10000F900F90329B1AC01F921F921F921F920C
:102B2000812CA12CB12C68E4C62E64E4D62EE12CB5
:102B3000F12C870120E030E040EA51E4C801B70100
:102B40000E949B080F900F900F900F90339B1AC01C
:102B50001F921F921F921F92812CA12CB12C58E41E
:102B6000C52E54E4D52EE12CF12C870120E030E075
:102B700040EA51ECC801B7010E949B080F900F90EA
:102B80000F900F908091F904811175C01092F60496
:102B900085E4982E9F92C8E4CF931F921F92A12C98
:102BA000B12C6501E12CF12C00E211E4A6019501A4
:102BB00060EF73E284E799EC0E94E00FD4E4DF93C6
:102BC000CF931F921F92E12CF12C00E810E4A60194
:102BD000950160EF73E284E799EC0E94E00F9F9209
:102BE000CF931F921F92A12CB12C30E2C32E31E45F
:102BF000D32EE12CF12C870120EF33E244E759EC8E
:102C0000C801B7010E94E00FDF93CF931F921F927C
:102C1000A12CB12C40E8C42E40E4D42E20EF33E2A6
:102C200044E759ECC801B7010E94E00FA8019701E1
:102C3000C801B7010E94360EEEE1F5E08CE0DF013D
:102C40001D928A95E9F78DB79EB740960FB6F89416
:102C50009EBF0FBE8DBFDF91CF911F910F91FF904F
:102C6000EF90DF90CF90BF90AF909F908F9008959E
:102C70000E94B40203CF0E94B40284CF5058BB27F5
:102C8000AA270E9456160C9427180E94191838F08B
:102C90000E94201820F039F49F3F19F426F40C9478
:102CA00016180EF4E095E7FB0C94E717E92F0E9445
:102CB000381858F3BA17620773078407950720F08E
:102CC00079F4A6F50C9472180EF4E0950B2EBA2F39
:102CD000A02D0B01B90190010C01CA01A001112422
:102CE000FF27591B99F0593F50F4503E68F11A16CE
:102CF000F040A22F232F342F4427585FF3CF46955F
:102D000037952795A795F0405395C9F77EF41F1680
:102D1000BA0B620B730B840BBAF09150A1F0FF0F4A
:102D2000BB1F661F771F881FC2F70EC0BA0F621F36
:102D3000731F841F48F4879577956795B795F79526
:102D40009E3F08F0B0CF9395880F08F09927EE0FBB
:102D50009795879508950E945A1890F09F3748F4E8
:102D6000911116F40C94731860E070E080E89FE312
:102D7000089526F01B16611D711D811D0C94ED1721
:102D80000C9408180E94C31708F481E008950E946B
:102D9000DB160C9427180E94201858F00E9419186E
:102DA00040F029F45F3F29F00C94E71751110C947F
:102DB00073180C9416180E94381868F39923B1F30D
:102DC000552391F3951B550BBB27AA276217730751
:102DD000840738F09F5F5F4F220F331F441FAA1FE5
:102DE000A9F335D00E2E3AF0E0E832D091505040A1
:102DF000E695001CCAF72BD0FE2F29D0660F771F4F
:102E0000881FBB1F261737074807AB07B0E809F034
:102E1000BB0B802DBF01FF2793585F4F3AF09E3FB9
:102E2000510578F00C94E7170C9473185F3FE4F3A6
:102E3000983ED4F3869577956795B795F7959F5FFC
:102E4000C9F7880F911D9695879597F90895E1E048
:102E5000660F771F881FBB1F621773078407BA07A7
:102E600020F0621B730B840BBA0BEE1F88F7E09502
:102E700008950E9440176894B1110C947318089536
:102E80000E94401888F09F5798F0B92F9927B751A2
:102E9000B0F0E1F0660F771F881F991F1AF0BA95FE
:102EA000C9F714C0B13091F00E947218B1E00895D2
:102EB0000C947218672F782F8827B85F39F0B93FC4
:102EC000CCF3869577956795B395D9F73EF49095B1
:102ED0008095709561957F4F8F4F9F4F0895E8942F
:102EE00009C097FB3EF490958095709561957F4F52
:102EF0008F4F9F4F9923A9F0F92F96E9BB27939500
:102F0000F695879577956795B795F111F8CFFAF40F
:102F1000BB0F11F460FF1BC06F5F7F4F8F4F9F4F40
:102F200016C0882311F096E911C0772321F09EE89E
:102F3000872F762F05C0662371F096E8862F70E004
:102F400060E02AF09A95660F771F881FDAF7880FDE
:102F50009695879597F908950E945A1890F09F3793
:102F600048F4911116F00C94731860E070E080E85A
:102F70009FEB089526F41B16611D711D811D0C9495
:102F8000ED170C940818990F0008550FAA0BE0E8EC
:102F9000FEEF16161706E807F907C0F0121613061B
:102FA000E407F50798F0621B730B840B950B39F45B
:102FB0000A2661F0232B242B252B21F408950A26C1
:102FC00009F4A140A6958FEF811D811D089597F901
:102FD0009F6780E870E060E00895882371F47723AC
:102FE00021F09850872B762F07C0662311F499277C
:102FF0000DC09051862B70E060E02AF09A95660F24
:10300000771F881FDAF7880F9695879597F90895A7
:103010009F3F31F0915020F4879577956795B7954C
:10302000880F911D9695879597F908959FEF80ECED
:10303000089500240A94161617061806090608951E
:1030400000240A9412161306140605060895092E84
:103050000394000C11F4882352F0BB0F40F4BF2BF3
:1030600011F460FF04C06F5F7F4F8F4F9F4F089533
:1030700057FD9058440F551F59F05F3F71F0479529
:10308000880F97FB991F61F09F3F79F0879508950E
:10309000121613061406551FF2CF4695F1DF08C02D
:1030A000161617061806991FF1CF8695710561054A
:1030B000089408950E944018A0F0BEE7B91788F45C
:1030C000BB279F3860F41616B11D672F782F88270D
:1030D000985FF7CF869577956795B11D939596394B
:1030E000C8F30895E894BB2766277727CB0197F9A3
:1030F00008950E94C31708F48FEF08950E944018A6
:1031000058F19E5760F19851A0F0E9F0983020F501
:10311000092E9927660F771F881F991F0A94D1F7E8
:1031200012C0062E672F782F8827985F11F4000CA5
:1031300007C0993FB4F38695779567959395D9F72E
:10314000611D711D811D3EF490958095709561956E
:103150007F4F8F4F9F4F089568940C9473180C9471
:1031600072180E94C4180C9427180E94191838F07D
:103170000E94201820F0952311F00C94E7170C946E
:10318000161811240C9473180E94381870F3959F28
:10319000C1F3950F50E0551F629FF001729FBB274E
:1031A000F00DB11D639FAA27F00DB11DAA1F649FEA
:1031B0006627B00DA11D661F829F2227B00DA11D9D
:1031C000621F739FB00DA11D621F839FA00D611D23
:1031D000221F749F3327A00D611D231F849F600D44
:1031E000211D822F762F6A2F11249F5750409AF06D
:1031F000F1F088234AF0EE0FFF1FBB1F661F771FF9
:10320000881F91505040A9F79E3F510580F00C94C3
:10321000E7170C9473185F3FE4F3983ED4F3869558
:1032200077956795B795F795E7959F5FC1F7FE2B63
:10323000880F911D9695879597F9089519F416F4BE
:103240000C9416180C9408180E944018B8F399238F
:10325000C9F3B6F39F57550B87FF0E9464190024EA
:10326000A0E640EA900180585695979528F4805C36
:10327000660F771F881F20F026173707480730F49E
:10328000621B730B840B202931294A2BA6951794B6
:103290000794202531254A2758F7660F771F881F86
:1032A00020F026173707480730F4620B730B840BA6
:1032B000200D311D411DA09581F7B901842F915832
:1032C000880F96958795089591505040660F771F07
:1032D000881FD2F7089597FB072E16F4009407D0A5
:1032E00077FD09D00E94BA1907FC05D03EF49095ED
:1032F00081959F4F0895709561957F4F0895A1E244
:103300001A2EAA1BBB1BFD010DC0AA1FBB1FEE1F5F
:10331000FF1FA217B307E407F50720F0A21BB30BAA
:10332000E40BF50B661F771F881F991F1A9469F726
:1033300060957095809590959B01AC01BD01CF0182
:103340000895EE0FFF1F0590F491E02D09940E945F
:10335000CE19A59F900DB49F900DA49F800D911D37
:1033600011240895B7FF0C94A7190E94A719821B76
:10337000930B0895AA1BBB1B51E107C0AA1FBB1FDB
:10338000A617B70710F0A61BB70B881F991F5A95F1
:10339000A9F780959095BC01CD010895A29FB00139
:1033A000B39FC001A39F700D811D1124911DB29F79
:0E33B000700D811D1124911D0895F894FFCF1A
:0233BE0001010B
:00000001FF
