:100000000C9434000C945B000C945B000C945B002B
:100010000C945B000C945B000C945B000C945B00F4
:100020000C945B000C9442110C945B000C945311E3
:100030000C945B000C945B000C945B000C945B00D4
:100040000C9436110C945B000C9439010C94E8006C
:100050000C945B000C945B000C945B000C945B00B4
:100060000C945B000C945B00E9EAF6E085EC98E008
:1000700001C08193EF3FF907E0F3D9F311241FBECC
:10008000CFEFD8E0DEBFCDBF11E0A0E0B1E0EAE6FF
:10009000F2E302C005900D92A230B107D9F726E035
:1000A000A2E0B1E001C01D92A93AB207E1F70E94B7
:1000B0005D000C9433190C94000078940E948C001D
:1000C0000E9462020E94790E0E94D6100E94910E38
:1000D0000E94B80E0E942D0490E080E008951092D6
:1000E0000301109202010895909109019F5F9038D9
:1000F00009F490E0209108012917E1F3E09109014A
:10010000F0E0E75DF94F8083909309018091C10091
:1001100080628093C10008951092C50080E18093B1
:10012000C400E0ECF0E080818D7F8083E1ECF0E0C2
:100130008081806180838081886080838081806805
:1001400080838EE70C947400CF92DF92EF92FF923F
:10015000CF93C82FCB01BA0120E030E04AE754E446
:100160000E940F180E94DC176B017C0128EFF21A25
:100170008C2D80680E947400D701C60127E0B695D7
:10018000A795979587952A95D1F780680E94740066
:10019000D701C6013EE0B695A795979587953A9504
:1001A000D1F780680E947400D701C60145E1B69579
:1001B000A795979587954A95D1F780680E94740016
:1001C0008C2FCF91FF90EF90DF90CF900C94740024
:1001D0001F920F920FB60F9211248F939F93EF935C
:1001E000FF9380910801909105019923B9F095E062
:1001F0009093C6001092050190910901981305C0D3
:100200008091C1008F7D8093C100FF91EF919F91FC
:100210008F910F900FBE0F901F901895E82FF0E070
:10022000E75DF94F90819093C6008F5F803809F4A5
:1002300080E080930801E0CFE0910A01F0E0E75D03
:10024000FA4F808190910A019F5F90930A019091EB
:1002500004019F5F90930401903151F491E09093D9
:1002600005019091C10090629093C1001092040129
:1002700008951F920F920FB60F9211242F933F9360
:100280004F935F936F937F938F939F93AF93BF939E
:10029000CF93EF93FF93C091C60080910001882314
:1002A000B1F010920001C0930701FF91EF91CF913F
:1002B000BF91AF919F918F917F916F915F914F917E
:1002C0003F912F910F900FBE0F901F90189581E0D6
:1002D00080930001809107018C1719F08DE30E9433
:1002E000A20FC031E8F481E2C13019F1C23069F4E3
:1002F000109203011092020110920A0110920B0158
:10030000109204010E94B40FD0CFC33019F40E94A0
:10031000A002CBCF83E2C43061F40E94A402C5CF17
:10032000E0910B0181E08E0F90910A01981304C0B7
:1003300082E20E94A20FB9CFF0E0E75DFA4FC083DE
:1003400080930B01B2CFCF93C1E080910301811163
:1003500015C010920601C1E090910A0180910B0135
:10036000981761F10E941C01803131F481E0809383
:1003700003011092020181E4CF910895809102015E
:10038000882371F01092060190910A0180910B016F
:10039000981749F00E941C01813111F41092030159
:1003A0000E94B402D2CF80910601811104C00E9444
:1003B000A802C09306010E94B402E6CF8091060114
:1003C000811104C00E94A802C09306010E94B402D9
:1003D000C3CF80910301882361F0809102018111D4
:1003E00008C090910A0180910B01981304C00E94EB
:1003F000A80280E808950E941C0187FDFBCF81318F
:1004000019F410920301F5CF83E20E94A20FF1CFFD
:1004100020910A0190910B0181E0291301C080E035
:10042000089581E08093020108950F931F93E1E105
:10043000F1E0638170E090E080E06058710981092B
:10044000910927E0660F771F881F991F2A95D1F71A
:10045000028110E030E020E0005811092109310943
:10046000600F711F821F931F37E0660F771F881F71
:10047000991F3A95D1F7018110E030E020E0005853
:10048000110921093109600F711F821F931F47E075
:10049000660F771F881F991F4A95D1F72081620F39
:1004A000711D811D911D60587109810998400E943C
:1004B000CF1620E030E04AE754E40E9425161F9151
:1004C0000F910895E6E1F1E081E0808340E050E0A3
:1004D0006AEF75E4428353836483758316821782BF
:1004E000108611861286138614861586168640E0BD
:1004F00050E060EA70E44787508B618B728B438BCE
:10050000548B658B768B178A108E118E128E9CE021
:10051000E1E3F1E0DF01292F1D922A95E9F7EDE3F0
:10052000F1E0DF011D929A95E9F780931001809325
:100530000F0110920E0110920D0180930C0108958D
:1005400081E080931001089581E080930F01089568
:1005500080910D0190910E01019690930E01809370
:100560000D0110920C0108958F929F92AF92BF924D
:10057000CF92DF92EF92FF920F931F93CF934A9BFC
:1005800002C04B9903C080E00E94980E0E94B10FF8
:10059000882391F10E941F0E0E947F106B017C0145
:1005A0000E946E104B015C010E945D108701760174
:1005B000A50194010E94240E0E945D106093250104
:1005C0007093260180932701909328010E946E105A
:1005D0006093290170932A0180932B0190932C0141
:1005E0000E947F1060932D0170932E0180932F0144
:1005F000909330011092150180911001811105C076
:1006000080910F01882309F41CC1109210010E94EF
:10061000F50D811112C00E94080281110EC00E94C6
:10062000B10F81110AC081E40E94740083B7816018
:1006300083BF889583B78E7F83BF4A9903C082E4C6
:100640000E9474004B9903C083E40E9474000E94CE
:10065000AE0FC82F803211F00E947400309905C08F
:10066000C43219F084E20E947400319905C0C53289
:1006700019F085E20E947400329905C0C63219F063
:1006800086E20E947400339905C0CA3219F08AE2EA
:100690000E9474000E945D1020E030E040EA50E4C7
:1006A0000E949C152091310130913201409133011B
:1006B000509134010E949C15AB01BC0188E70E9457
:1006C000A4000E946E1020E030E040EA50E40E9456
:1006D0009C152091350130913601409137015091A0
:1006E00038010E949C15AB01BC0189E70E94A4005F
:1006F0000E947F102091390130913A0140913B01D5
:1007000050913C010E949C15AB01BC018AE70E94FC
:10071000A40080910C01811110C060910D017091B5
:100720000E0190E080E00E94CD16AB01BC0187E78E
:100730000E94A40081E080930C01E9EAF6E0BF0189
:10074000695A76408081853C09F473C090E080E06E
:100750000E94CD16AB01BC0185E70E94A4008091E8
:100760000F01882309F457C010920F0140E050EEAA
:1007700061EE74E486E70E94A4004091310150913B
:100780003201609133017091340181E60E94A4002E
:1007900040913501509136016091370170913801D7
:1007A00082E60E94A4004091390150913A01609183
:1007B0003B0170913C0183E60E94A4004091180126
:1007C0005091190160911A0170911B0187E60E94F6
:1007D000A40060911C0170E090E080E00E94CD16C2
:1007E000AB01BC0188E60E94A40040911D0150911C
:1007F0001E0160911F017091200189E60E94A400F2
:1008000040912101509122016091230170912401B6
:100810008AE60E94A40086E0CF911F910F91FF907D
:10082000EF90DF90CF90BF90AF909F908F900C94FF
:10083000740088E0EF3FF80711F008F087CF319699
:100840007ECFCF911F910F91FF90EF90DF90CF90CF
:10085000BF90AF909F908F900895C1E3D1E08CE05E
:10086000982E772473940E94A301182F0E94B10F31
:10087000882319F00E94B402F6CF17FD99C2EFEB5E
:10088000E10FEA3108F038C1EF3008F031C1F0E093
:10089000E45BFB4F0C94FF18C1045B04B5048804AF
:1008A000C404C704CA04CF04D4040C053D056E0576
:1008B000720574057605A0901801B0901901C090DA
:1008C0001A01D0901B01E0902D01F0902E010091B3
:1008D0002F01109130012091290130912A0140917E
:1008E0002B0150912C01609125017091260180917E
:1008F0002701909128011F921F921F921F928090B2
:100900001C010E9489080F900F900F900F9039C022
:10091000A0901801B0901901C0901A01D0901B014D
:10092000E0902D01F0902E0100912F0110913001E7
:100930002091290130912A0140912B0150912C01E5
:1009400060912501709126018091270190912801E5
:10095000E0912401EF93E0912301EF93E0912201D4
:10096000EF93E0912101EF93CACF60911D01709147
:100970001E0180911F019091200140911C010E9455
:10098000CC0D1092150176CF10921601FACF70920D
:100990001601F7CF8091160180931701F2CF809155
:1009A000170180931601EDCF0E949014FE01892D4E
:1009B00011928A95E9F780E090E0A0EAB0E4809394
:1009C000250190932601A0932701B09328018093DD
:1009D000290190932A01A0932B01B0932C0110922E
:1009E0002D0110922E0110922F0110923001A09033
:1009F0001801B0901901C0901A01D0901B011F92EC
:100A00001F921F921F92812CE12CF12C87019C01D7
:100A1000AD01CD01B90175CF8091310190913201C5
:100A2000A0913301B091340180933D0190933E0138
:100A3000A0933F01B0934001809135019091360120
:100A4000A0913701B0913801809341019093420108
:100A5000A0934301B09344018091390190913A01F0
:100A6000A0913B01B0913C018093450190934601D8
:100A7000A0934701B093480184CF80913D019091AC
:100A80003E01A0913F01B0914001809331019093CC
:100A90003201A0933301B0933401809141019091D0
:100AA0004201A0914301B09144018093350190939C
:100AB0003601A0933701B0933801809145019091A0
:100AC0004601A0914701B09148018093390190936C
:100AD0003A01A0933B01B0933C0153CF82E00E94C6
:100AE000CD0D4FCF83E0FBCF84E0F9CF85E0F7CF8A
:100AF0008CE30E94A20F45CF8FE9810F8A3108F065
:100B000055C180911501843009F04EC1145617313A
:100B100008F048C1E12FF0E0E057FA4F0C94FF18BD
:100B20003C06D2062A06D20652067E06AA06D2063F
:100B3000D206D206D206D2064706D206D20635061D
:100B4000D206D206D206D206A705D305FF0510911C
:100B500016010E9415021130D9F420E030E040EA7D
:100B600050E40E949D159B01AC0160913101709190
:100B7000320180913301909134010E949D15609360
:100B80002501709326018093270190932801F9CEC7
:100B90009B01AC0160912501709126018091270194
:100BA00090912801EACF109116010E941502113090
:100BB000D9F420E030E040EA50E40E949D159B010A
:100BC000AC016091350170913601809137019091AF
:100BD00038010E949D156093290170932A0180932A
:100BE0002B0190932C01CDCE9B01AC01609129018A
:100BF00070912A0180912B0190912C01EACF1091E4
:100C000016010E9415021130D1F420E030E0A90154
:100C10000E949D159B01AC016091390170913A01D0
:100C200080913B0190913C010E949D1560932D01A4
:100C300070932E0180932F0190933001A2CE9B01DF
:100C4000AC0160912D0170912E0180912F01909146
:100C50003001EACF0E9415026093180170931901C8
:100C600080931A0190931B018CCE0E9415020E9462
:100C70009E1660931C0185CE0E94150260931D0193
:100C800070931E0180931F01909320017ACE0E94E1
:100C900015026093210170932201809323019093A8
:100CA00024016FCE0E9415026B017C018091160118
:100CB000813059F4C0923101D0923201E092330177
:100CC000F09234015ECE0E94B4020E949F0F811107
:100CD000FACF0E945D1020E030E040EA50E40E942C
:100CE0009C15A70196010E949D1560933101709398
:100CF0003201809333019093340143CE0E94150258
:100D00006B017C0180911601813059F4C09235014C
:100D1000D0923601E0923701F092380132CE0E9433
:100D2000B4020E949F0F8111FACF0E946E1020E042
:100D300030E040EA50E40E949C15A70196010E9411
:100D40009D15609335017093360180933701909320
:100D5000380117CE0E9415026B017C0180911601AB
:100D6000813059F4C0923901D0923A01E0923B01AE
:100D7000F0923C0106CE0E94B4020E949F0F8111A6
:100D8000FACF0E947F109B01AC01C701B6010E94FF
:100D90009D156093390170933A0180933B019093C4
:100DA0003C01EFCD8EE3A5CE8AE3A3CE83E2A1CEB4
:100DB000E0911501E43048F481E08E0F8093150135
:100DC000F0E0EF5EFE4F108355CD8AE30E94A20F44
:100DD00051CD4F925F926F927F928F929F92AF927E
:100DE000BF92CF92DF92EF92FF920F931F93CF9318
:100DF000DF93CDB7DEB762970FB6F894DEBF0FBEB4
:100E0000CDBF9A8B898B2A013B015901FC01628974
:100E10007389848995890E94CD166B017C01A30199
:100E200092010E940F180E9409160E949E162B0123
:100E30003C01E989FA8941A652A663A674A6A501D8
:100E40009801C701B6010E940F180E9409160E945E
:100E50009E164B015C01E989FA8985A696A6A7A68C
:100E6000B0AA21A932A943A954A9A0EEBEE20E94CA
:100E7000051969837A838B839C830E94CF166D83C7
:100E80007E838F839887C301B2010E94CD162B0108
:100E90003C01A7019601C701B6010E940F186B0122
:100EA0007C01A3019201C301B2010E940F1869875E
:100EB0007A878B879C872D813E814F815885CA0117
:100EC000B9010E949D156D877E878F87988B298534
:100ED0003A854B855C85C701B6010E949C152D851E
:100EE0003E854F8558890E9425160E9409160E944A
:100EF00097162B013C01C501B4010E94CD169B0140
:100F0000AC010E940F184B015C01A70196010E94E1
:100F10009C156B017C0169817A818B819C81909504
:100F20008095709561957F4F8F4F9F4F0E94CF1690
:100F30009B01AC010E949D159B01AC01C701B6014C
:100F40000E9425160E940A17E989FA89C684D78467
:100F5000E088F188A7019601241935094609570947
:100F600029833A834B835C830E94971629813A81B7
:100F70004B815C81261B370B480B590BDA01C901E9
:100F8000B7FF3BC0C701B6010E94CF162D853E8535
:100F90004F8558890E940F1829853A854B855C85B5
:100FA0000E949C15A50194010E949D154B015C01B6
:100FB00020E030E040E850E46D817E818F819885AB
:100FC0000E940F189B01AC01C501B4010E942516B7
:100FD0000E9409160E94971697FF03C060E070E018
:100FE000CB0126013701641575058605970514F4B4
:100FF0002B013C0180E090E0DC01E989FA8945AAF7
:1010000056AA67AA70AE840D951DA61DB71D81AFA7
:1010100092AFA3AFB4AF62960FB6F894DEBF0FBE27
:10102000CDBFDF91CF911F910F91FF90EF90DF9097
:10103000CF90BF90AF909F908F907F906F905F9078
:101040004F9008954F925F926F927F92AF92BF92AE
:10105000CF92DF92EF92FF920F931F93CF93DF9384
:101060008C01EB01FC01428C538C648C758CAA8C36
:10107000BB8CCC8CDD8C9501A601C301B2010E9412
:10108000201687FF37C0A3019201C301B2010E945D
:101090000F182B013C0120E03AEB4BE55AECF8012C
:1010A00062A173A184A195A10E940F189B01AC01BC
:1010B000C301B2010E949C150E9482187B018C0121
:1010C0009B01AC01B501C6010E94201687FF02C03A
:1010D000750186019701A801B501C6010E9420167D
:1010E000882341F0C701D8018A8F9B8FAC8FBD8FB9
:1010F00081E08FA3DF91CF911F910F91FF90EF902F
:10110000DF90CF90BF90AF907F906F905F904F90A7
:1011100008952F923F924F925F926F927F928F929B
:101120009F92AF92BF92CF92DF92EF92FF920F9376
:101130001F93CF93DF93CDB7DEB7A4970FB6F89484
:10114000DEBF0FBECDBF29013A01E986FA860B87C3
:101150001C87A982BE82CF82D886C9ACDAACEBAC40
:10116000FCAC2CE137EC41EB52E40E940F180E94DA
:10117000DC176D8B7E8B8F8B988F24E731ED45EBE1
:1011800052E4C301B2010E940F180E94DC17698F5C
:101190007A8F8B8F9C8F25E535E545E052E4698594
:1011A0007A858B859C850E940F180E94DC176D8FB5
:1011B0007E8F8F8F98A3809166018F5F89878E3095
:1011C00009F419864984042D440C110B80916501A2
:1011D0008017110609F4CBC380916601282E312CAB
:1011E00020E030E0A901C701B6010E942016882343
:1011F00009F4C0C381E4829D8001839D100D1124F8
:1012000009591E4F81E0D8018C932CE137EC41EB5A
:1012100052E4C701B6010E940F1820E030E040E818
:1012200054E40E940F180E94DC17F801FD966083B9
:1012300071838283938381E4829DF001839DF00D0D
:101240001124E959FE4F86A215868091590190918B
:101250005A01A0915B01B0915C014D885E886F8856
:10126000788C481659066A067B0614F428E0258710
:1012700080905D0190905E01A0905F01B090600150
:10128000498C5A8C6B8C7C8C481459046A047B04FE
:101290005CF421E4229DF001239DF00D1124E95915
:1012A000FE4F258520612587C0906101D0906201A5
:1012B000E0906301F09064014D8C5E8C6F8C78A09F
:1012C0004C145D046E047F045CF421E4229DF00163
:1012D000239DF00D1124E959FE4F258520622587B5
:1012E0004D885E886F88788C481A590A6A0A7B0A8A
:1012F000C301B20197FF07C0442455243201461AA6
:10130000570A680A790A41E4429D9001439D300DD5
:10131000112429593E4FD90111964D925D926D923B
:101320007C921497098D1A8D2B8D3C8D0819190903
:101330002A093B09480159018A829B82AC82BD82FD
:10134000B7FE0BC022273327A901281939094A09FA
:101350005B092A833B834C835D8341E4429D90017A
:10136000439D300D1124D901A959BE4F0A811B811B
:101370002C813D8115960D931D932D933C931897C9
:101380002D8D3E8D4F8D58A12C193D094E095F09B9
:1013900069017A01C98ADA8AEB8AFC8AF7FE0BC0F6
:1013A0000027112798010C191D092E093F09098BE7
:1013B0001A8B2B8B3C8BE1E4E29DA001E39D500D49
:1013C000112449595E4F09891A892B893C89DA0110
:1013D00019960D931D932D933C931C974D865E8615
:1013E0006F86788A0A811B812C813D8140165106C7
:1013F0006206730620F40D871E872F87388B4D8475
:101400005E846F84788829893A894B895C89421681
:1014100053066406750610F429013A0121E4229D61
:101420008001239D100D112409591E4FD8011E96CD
:101430004D925D926D927C925197411451046104DA
:10144000710409F490C30E94CF162CE137EC41EBF4
:1014500052E40E9425166D877E878F87988BC50181
:10146000B4010E94CF1624E731ED45EB52E40E940F
:101470002516698B7A8B8B8B9C8BC701B6010E94DA
:10148000CF1625E535E545E052E40E9425164B01CF
:101490005C012D853E854F855889CA01B9010E949E
:1014A0000F186B017C0129893A894B895C89CA0133
:1014B000B9010E940F189B01AC01C701B6010E943F
:1014C0009D156B017C01A5019401C501B4010E9429
:1014D0000F189B01AC01C701B6010E949D150E9427
:1014E00082186A837B838C839D83F80162A373A334
:1014F00084A395A39B01AC0160E070E080E89FE3CA
:101500000E9425166B017C0189819E81AF81B8857F
:10151000F801868B978BA08FB18FC301B2010E9417
:10152000CF162B013C0129813E814F815885C7018F
:10153000B6010E940F18A30192010E940F180E9489
:1015400009160E949E16D80152966D937D938D9335
:101550009C935597A7019601C301B2010E940F18F1
:1015600020E03AEB4BED59E40E940F1820E030E800
:101570004BE356E40E9425160E9409160E949E160F
:10158000F80161AB72AB83AB94ABA70196016D859B
:101590007E858F8598890E940F186D877E878F873B
:1015A000988BA701960169897A898B899C890E9409
:1015B0000F18698B7A8B8B8B9C8BA7019601C501C9
:1015C000B4010E940F182B013C019091660180919B
:1015D0006501981709F4D8C1E0904901F0904A01DB
:1015E00000914B0110914C0120E030E0A901B701BE
:1015F000C8010E94D71718160CF0C6C160914D01A2
:1016000070914E0180914F019091500190582D851D
:101610003E854F8558890E940F184B015C0120912F
:101620005101309152014091530150915401698907
:101630007A898B899C890E940F189B01AC01C50196
:10164000B4010E949C154B015C0120915501309121
:1016500056014091570150915801C301B2010E94B7
:101660000F189B01AC01C501B4010E949C154B01F0
:101670005C0123E333E343E75FE30E94201687FF27
:1016800083C129813E814F815885B701C8010E94DD
:10169000201687FD04C0E980FE800F81188523E3B2
:1016A00033E343E75FEBC501B4010E94D717181677
:1016B000C4F5A501940160E070E080E89FE30E941A
:1016C0009C1520E030E040E05FE30E940F180E948C
:1016D00082184B015C0120E030EC48E256E40E94A5
:1016E0000F1869A37AA38BA39CA3A501940160E0C2
:1016F00070E080E89FE30E949C159B01AC0169A10A
:101700007AA18BA19CA10E9425160E9482185B01E0
:101710006C019701A8010E94D717181614F07501E3
:10172000860181E4829DF001839DF00D1124E95929
:10173000FE4FC701D801868F978FA0A3B1A320E0E9
:101740003AEB4BE55AEC6A817B818C819D810E944A
:101750000F189B01AC0160E070E0CB010E949C156A
:101760000E9482185B016C019B01AC01B701C801AA
:101770000E94201687FD02C07501860121E4229D8A
:10178000C001239D900D11249C0129593E4F490110
:10179000C701D801F901828F938FA48FB58F95016E
:1017A000A60169817E818F8198850E942016181676
:1017B0000CF4EFC081E0D40198968C9381E4829D73
:1017C000F001839DF00D1124E959FE4F81E087A3BC
:1017D0000D851E852F85388900934D0110934E018C
:1017E00020934F013093500129893A894B895C89B4
:1017F000209351013093520140935301509354016F
:1018000040925501509256016092570170925801D2
:1018100089819E81AF81B8858093490190934A0167
:10182000A0934B01B0934C014984409266014D88CE
:101830005E886F88788C4092590150925A0160926C
:101840005B0170925C01498C5A8C6B8C7C8C409251
:101850005D0150925E0160925F01709260014D8C5B
:101860005E8C6F8C78A04092610150926201609210
:10187000630170926401F0906601F0E0E0E010E036
:1018800000E0209165018F2D0F2C000C990B28177B
:10189000190609F081C0F090650110E000E090E0C9
:1018A00080E021E4E22E409166012F2D0F2C000CE8
:1018B000330B4217130609F0EDC0009759F00115DC
:1018C000110541F0DC0198962C91211103C0B8015B
:1018D0000E942208D0906501F12CE12C81E4C82EF1
:1018E0008D2D0D2C000C990B2091660128171906DF
:1018F00009F0EDC0D70156968D909D90AD90BC90AB
:101900005997A501940160E070E0CB010E94251673
:101910002B013C01A5019401F701628D738D848D2B
:10192000958D0E942516AB01BC0193018201C70170
:101930000E94E906D70197961C92A4960FB6F894D8
:10194000DEBF0FBECDBFDF91CF911F910F91FF90F2
:10195000EF90DF90CF90BF90AF909F908F907F904F
:101960006F905F904F903F902F900C94810F0E944A
:10197000B4022CCC81E4829DF001839DF00D1124F2
:10198000E959FE4F108257CCE12CF12C00E010E019
:10199000C8CEF40110A612CFF11002C03EE0F32E23
:1019A000FA942F2D31E42302C0011124AC014959CE
:1019B0005E4F4A010115110509F465C0309709F41D
:1019C00062C0D80198968C9198975E962C905E97FD
:1019D0005F963C905F979096AC90909791964C90C4
:1019E0004982811153C0B22CC32CDA2CE42C428CD6
:1019F000538C648C758CA3019201622D732D8A2DFA
:101A00009E2D0E94D71718160CF040C0A30192011A
:101A1000C301B2010E940F182B013C0120E03AEBF8
:101A20004BE55AECD80192966D917D918D919C91E8
:101A300095970E940F189B01AC01C301B2010E944F
:101A40009C150E948218562E672E782EA92E262FBE
:101A5000372F482F592F622D732D8D2D9E2D0E94CB
:101A6000201687FD03C0B52C6301EA2C8B2D9C2D1D
:101A7000AD2DBE2DF801828F938FA48FB58FE1E03D
:101A8000D8019796EC93F8018401FBCEC101AA2DF1
:101A9000B981F0CFFF2D4E2DF40290011124D90110
:101AA000A959BE4F6D01009751F00115110539F08C
:101AB000FC0120A5211103C0B8010E942208F39463
:101AC000FEE0FF1201C0F12CC8018601ECCEBD2D55
:101AD000EC2DBE0290011124890109591E4F1801F5
:101AE000E114F104C9F1D70197962C9121110AC094
:101AF000C89EF001C99EF00D1124E959FE4F27A19F
:101B0000222351F1F70146885788608C718CC89E5A
:101B1000F001C99EF00D1124E959FE4FA301920175
:101B2000628D738D848D958D0E9425164B015C010D
:101B3000A3019201D7015A966D917D918D919C914F
:101B40005D970E942516AB01BC0195018401C70178
:101B50000E94E906F70117A2D394FEE0DF1201C04C
:101B6000D12C7101BDCEA4960FB6F894DEBF0FBE86
:101B7000CDBFDF91CF911F910F91FF90EF90DF903C
:101B8000CF90BF90AF909F908F907F906F905F901D
:101B90004F903F902F90089508950F931F93CF93E8
:101BA000DF93D82FC0916601CF5FCE3009F4C0E03B
:101BB0000C2F0C2E000C110B809165018017110663
:101BC00089F0E091660181E4E89FF0011124E95970
:101BD000FE4FD083C0936601DF91CF911F910F918B
:101BE0000C94810F0E94B402E7CF2091660190917E
:101BF000650181E0291301C080E00895909166019C
:101C000080916501981749F08091650121E4829FD8
:101C1000C001112489599E4F089590E080E00895F5
:101C20009091660180916501981741F0809165015E
:101C30008F5F8E3009F480E0809365010895809174
:101C400066018093650108958F929F92AF92BF9233
:101C5000CF92DF92EF92FF920F931F93CF93DF9378
:101C600049015A0167012CE137EC41EB52E40E9433
:101C70000F180E94DC17C9E5D1E0688379838A8355
:101C80009B8324E731ED45EB52E4C501B4010E948A
:101C90000F180E94DC176C837D838E839F8325E55C
:101CA00035E545E052E4C801B6010E940F180E94D4
:101CB000DC17688779878A879B8710924901109281
:101CC0004A0110924B0110924C01EDE4F1E08CE0DE
:101CD000DF011D928A95E9F7DF91CF911F910F9156
:101CE000FF90EF90DF90CF90BF90AF909F908F903C
:101CF0000895EF92FF920F931F9310926601109236
:101D00006501E12CF12C870120E030E040EA50E44D
:101D1000CA01B9010E94240E1F910F91FF90EF900C
:101D200008958AB1837F8AB987B1807C87B9089585
:101D30004A9B02C04B9906C017BC893228F082E04A
:101D400085BD089587BDF9CF8B3010F083E0F8CFC3
:101D500084E0F6CF87B50895882311F05C9A089542
:101D60005C980895882311F05F9A08955F9808950C
:101D7000569A17BC81E884BD83E085BD549A80E003
:101D80000E94AC0E579A80E00C94B20E8091FD0434
:101D90009091FE04A091FF04B091000540910105CF
:101DA000509102056091030570910405840F951F01
:101DB000A61FB71F813828E3920721E0A207B105CB
:101DC00050F48093FD049093FE04A093FF04B0931D
:101DD000000580E0089580589843A140B1098093A0
:101DE000FD049093FE04A093FF04B093000581E0EE
:101DF00008959B01AC01203486E038074105510568
:101E000020F420E436E040E050E060E070E788E352
:101E100099E30E94DD18B90190E02115310581E0B8
:101E200048075105B0F02115310588E048075105F4
:101E300020F563E056954795379527956A95D1F734
:101E4000B901E3E0220F331F441F551FEA95D1F774
:101E500091E080918100887F9F5F892B8093810032
:101E600070938900609388002093010530930205E8
:101E70004093030550930405089586E056954795D1
:101E8000379527958A95D1F7B90196E0220F331F30
:101E9000441F551F9A95D1F792E0DBCFCF92DF9286
:101EA000EF92FF92CF93DF93C0911B05D0911C0559
:101EB0000E94CD166B017C016A897B898C899D8982
:101EC0000E94CD169B01AC01C701B6010E942516E8
:101ED0006B017C016EA170E090E080E00E94CF1663
:101EE0009B01AC01C701B6010E940F180E949E160B
:101EF000862FDF91CF91FF90EF90DF90CF900C94E1
:101F0000980E8091F80481110BC081E08093F80451
:101F100080E380931A0580916F00826080936F0048
:101F200008951092F80410921C0510921B05EFE61C
:101F3000F0E080818D7F808380E00C94980E80910A
:101F4000F80408959091F704911107C08093F60466
:101F500081E08093F7040C946F0008958091F6045B
:101F600008958091F704089580E28093F60410921A
:101F7000F70408954F925F926F927F928F92AF9283
:101F8000BF92CF92DF92EF92FF920F931F93CF9366
:101F9000DF93CDB7DEB72C970FB6F894DEBF0FBE38
:101FA000CDBF69837A838B839C8329013A01ED82BB
:101FB000FE820F831887A986BA86CB86DC8680913D
:101FC000F804811171C0E12CF12C8701A80197015F
:101FD000C801B7010E94240EEDE1F5E08CE0DF01BD
:101FE0001D928A95E9F71F921F921F921F92812CD2
:101FF000AE8CBF8CC8A0D9A0A301920169817A815F
:102000008B819C810E9489080F900F900F900F90F8
:102010008091F80481114BC0E12CF12C8701A801BB
:102020009701C801B7010E94240EEDE1F5E08CE0B4
:10203000DF011D928A95E9F70E94B40F81E0809339
:10204000F5041F921F921F921F92812CAE8CBF8CA1
:10205000C8A0D9A029853A854B855C856D817E8194
:102060008F8198850E9489080F900F900F900F9094
:102070008091F80481111EC01092F5042C960FB6C1
:10208000F894DEBF0FBECDBFDF91CF911F910F91AE
:10209000FF90EF90DF90CF90BF90AF908F907F90A8
:1020A0006F905F904F9008950E94B40288CF0E9475
:1020B000B402AECF0E94B402DBCF60911D057091D7
:1020C0001E0580911F05909120050E94CF162CE1DE
:1020D00037EC41EB52E40E942516089560912105EA
:1020E0007091220580912305909124050E94CF16BE
:1020F00024E731ED45EB52E40E94251608956091E6
:1021000025057091260580912705909128050E944C
:10211000CF1625E535E545E052E40E9425160895E1
:102120008F929F92AF92BF92CF92DF92EF92FF92E7
:102130000F931F93CF93DF9349015A0167012CE15D
:1021400037EC41EB52E40E940F180E94DC17CDE1FE
:10215000D5E0688379838A839B8324E731ED45EB5F
:1021600052E4C501B4010E940F180E94DC176C8371
:102170007D838E839F8325E535E545E052E4C801E4
:10218000B6010E940F180E94DC17688779878A873A
:102190009B87DF91CF911F910F91FF90EF90DF9080
:1021A000CF90BF90AF909F908F900895EF92FF9245
:1021B0000F931F9384B18F6384B985B1807C806352
:1021C00085B9E1E8F0E080818F7E8083808188603E
:1021D0008083E0E8F0E080818D7F808380818E7F46
:1021E000808380818F73808380818F7C8083109235
:1021F000B0001092B100E0E7F0E080818160808360
:1022000060E476E080E090E00E94F90E80E00E94B9
:10221000980EEDE1F5E08CE0DF011D928A95E9F77B
:10222000E12CF12C870120E030E040EA50E4CA01C3
:10223000B9010E9490101092FD041092FE041092B9
:10224000FF041092000510921C0510921B051092BD
:10225000F70480E28093F604109205051092F504CD
:102260001F910F91FF90EF900C94910F1F920F927E
:102270000FB60F9211245E9815BC0F900FBE0F90F1
:102280001F9018951F920F920FB60F9211248F93E3
:1022900085B1887F85B91092B1008F910F900FBEE4
:1022A0000F901F9018951F920F920FB60F92112446
:1022B000CF92DF92EF92FF920F931F932F933F9352
:1022C0004F935F936F937F938F939F93AF93BF933E
:1022D000CF93DF93EF93FF938091050581110DC09C
:1022E00081E0809305058091F7048823F9F00E942E
:1022F000910F0E941F0E10920505FF91EF91DF9143
:10230000CF91BF91AF919F918F917F916F915F918D
:102310004F913F912F911F910F91FF90EF90DF9080
:10232000CF900F900FBE0F901F9018958091F504DD
:10233000811119C04A9B02C04B9903C080E00E94E2
:10234000980E309904C084E20E94A20FD4CF319934
:1023500002C085E2F9CF329902C086E2F5CF339907
:1023600002C08AE2F1CF25B190911A05987385B128
:10237000877C892B85B928732913BDCF85B1887FC8
:1023800090911A05892B85B98AEF8093B20082E07B
:102390008093B100789480911B0590911C05892B46
:1023A00009F06EC00E94FE0DEC0190931C05809315
:1023B0001B05892B19F40E94910F9DCF88818230D3
:1023C00008F05EC0C9A4DAA4EBA4FCA4C092F9048E
:1023D000D092FA04E092FB04F092FC0480E49CE9C1
:1023E000A0E0B0E08093FD049093FE04A093FF046E
:1023F000B0930005C701B6010E94F90E88818130B3
:1024000009F051C080E00E94980E109206051092CB
:1024100007051092080510920905E0911B05F0913F
:102420001C0586859785A089B189B595A79597954F
:102430008795B095A095909581959F4FAF4FBF4FD1
:102440008093160590931705A0931805B09319056E
:102450008093120590931305A0931405B09315056E
:1024600080930E0590930F05A0931005B09311056E
:1024700010920A0510920B0510920C0510920D0592
:10248000C0911B05D0911C052881223009F43EC261
:1024900078F0243009F440C208F43CC2253009F039
:1024A0002ACF80E03AC2C701B6010E944E0FB5CFD5
:1024B0003D8530931A0589819A81AB81BC81409119
:1024C0001605509117056091180570911905840F34
:1024D000951FA61FB71F8093160590931705A0930D
:1024E0001805B09319054E855F8568897989181696
:1024F00019061A061B0624F5316030931A05841B51
:10250000950BA60BB70B8093160590931705A09318
:102510001805B093190580911D0590911E05A09195
:102520001F05B091200533FFFEC00197A109B10935
:1025300080931D0590931E05A0931F05B093200561
:102540008D819E81AF81B885C0901205D090130512
:10255000E0901405F09015058C0D9D1DAE1DBF1D5E
:102560008093120590931305A0931405B09315055D
:10257000181619061A061B0634F530911A05326032
:1025800030931A05841B950BA60BB70B809312058D
:1025900090931305A0931405B09315058091210520
:1025A00090912205A0912305B091240534FFBFC06E
:1025B0000197A109B1098093210590932205A09369
:1025C0002305B093240589859A85AB85BC85C09089
:1025D0000E05D0900F05E0901005F09011058C0DC0
:1025E0009D1DAE1DBF1D80930E0590930F05A093FA
:1025F0001005B0931105181619061A061B0634F5B6
:1026000030911A05346030931A05841B950BA60B84
:10261000B70B80930E0590930F05A0931005B09310
:1026200011058091250590912605A0912705B0916F
:10263000280535FF80C00197A109B10980932505C0
:1026400090932605A0932705B0932805C0900A050E
:10265000D0900B05E0900C05F0900D058FEFC81A97
:10266000D80AE80AF80AC0920A05D0920B05E0924F
:102670000C05F0920D0580911A0590E3892780934F
:102680001A05C416D506E606F70608F034C18DA96A
:102690009EA9AFA9B8ADC816D906EA06FB0608F090
:1026A0004EC00E94C60E882309F425CE89A99AA996
:1026B000ABA9BCA94091F9045091FA046091FB04C4
:1026C0007091FC04840F951FA61FB71F8093F90417
:1026D0009093FA04A093FB04B093FC044A895B89AD
:1026E0006C897D89481759076A077B0740F4409336
:1026F000F9045093FA046093FB047093FC04C090B7
:10270000F904D090FA04E090FB04F090FC04C701B7
:10271000B6010E94F90E8881813009F072C080E014
:102720000E94980EE8CD0196A11DB11D01CF019622
:10273000A11DB11D40CF0196A11DB11D7FCF89AD57
:102740009AADABADBCADC816D906EA06FB0669F476
:1027500080E49CE9A0E0B0E08093FD049093FE0447
:10276000A093FF04B0930005C6CDC816D906EA06AB
:10277000FB0608F44BC00E94C60E882309F4BBCDAB
:1027800049A95AA96BA97CA98091F9049091FA04EE
:10279000A091FB04B091FC04481759076A077B0716
:1027A00038F5841B950BA60BB70B8093F904909317
:1027B000FA04A093FB04B093FC048DA59EA5AFA5DD
:1027C000B8A94091F9045091FA046091FB0470910A
:1027D000FC04481759076A077B0708F090CF8093DD
:1027E000F9049093FA04A093FB04B093FC0487CF00
:1027F0001092F9041092FA041092FB041092FC0457
:10280000DCCFC701B6010E944E0F75CD6A897B8966
:102810008C899D890091F9041091FA042091FB04A0
:102820003091FC04601771078207930751F06093A1
:10283000F9047093FA048093FB049093FC040E94C3
:10284000F90E8881813009F054C09AE0CC0CDD1C6F
:10285000EE1CFF1C9A95D1F7809106059091070513
:10286000A0910805B0910905892B8A2B8B2B41F487
:10287000C0920605D0920705E0920805F09209057E
:102880004091060550910705609108057091090572
:10289000C416D506E606F70608F42DCDED96888118
:1028A0009981AA81BB81840F951FA61FB71F8093B2
:1028B000060590930705A0930805B0930905F894C1
:1028C0000E94E9017894482F4058550B9A01220F35
:1028D000331FE0911B05F0911C0546A1429FC001EA
:1028E000439F900D11246FEF70E00E94C918862F4E
:1028F00017CF8EA115CF213011F40E941102109232
:102900001C0510921B050E94100EF5CC81E00E9460
:10291000AC0EF5CF80E0FBCF81E00E94B20EEFCF8E
:102920008F929F92AF92BF92CF92DF92EF92FF92DF
:102930000F931F93CF93DF938091F8048111F6C01A
:10294000E12CF12C8701A8019701C801B7010E9471
:10295000240EEDE1F5E08CE0DF011D928A95E9F7A8
:1029600081E08093F504309917C01F921F921F9247
:102970001F92812CA12CB12CE8E4CE2EE4E4DE2EB3
:10298000A801970160E070E080EA91E40E94890864
:102990000F900F900F900F9031991AC01F921F92B5
:1029A0001F921F92812CA12CB12C78E4C72E74E4C5
:1029B000D72EE12CF12C8701A801970160E070E08F
:1029C00080EA91EC0E9489080F900F900F900F9071
:1029D00032991AC01F921F921F921F92812CA12C14
:1029E000B12C68E4C62E64E4D62EE12CF12C8701CC
:1029F00020E030E040EA51E4C801B7010E948908B4
:102A00000F900F900F900F9033991AC01F921F9242
:102A10001F921F92812CA12CB12C58E4C52E54E496
:102A2000D52EE12CF12C870120E030E040EA51EC7A
:102A3000C801B7010E9489080F900F900F900F9066
:102A40008091F804811175C01092F50485E4982EE8
:102A50009F92C8E4CF931F921F92A12CB12C6501C5
:102A6000E12CF12C00E211E4A601950160EF73E284
:102A700084E799EC0E94BA0FD4E4DF93CF931F92BE
:102A80001F92E12CF12C00E810E4A601950160EF03
:102A900073E284E799EC0E94BA0F9F92CF931F9242
:102AA0001F92A12CB12C30E2C32E31E4D32EE12CA5
:102AB000F12C870120EF33E244E759ECC801B7015C
:102AC0000E94BA0FDF93CF931F921F92A12CB12CBB
:102AD00040E8C42E40E4D42E20EF33E244E759EC22
:102AE000C801B7010E94BA0FA8019701C801B70138
:102AF0000E94240EEDE1F5E08CE0DF011D928A9545
:102B0000E9F78DB79EB740960FB6F8949EBF0FBEFB
:102B10008DBFDF91CF911F910F91FF90EF90DF90CC
:102B2000CF90BF90AF909F908F9008950E94B40275
:102B300003CF0E94B40284CF5058BB27AA270E941B
:102B4000B4150C9485170E94771738F00E947E17F1
:102B500020F039F49F3F19F426F40C9474170EF406
:102B6000E095E7FB0C944517E92F0E94961758F360
:102B7000BA17620773078407950720F079F4A6F562
:102B80000C94D0170EF4E0950B2EBA2FA02D0B014C
:102B9000B90190010C01CA01A0011124FF27591BA2
:102BA00099F0593F50F4503E68F11A16F040A22FA8
:102BB000232F342F4427585FF3CF46953795279519
:102BC000A795F0405395C9F77EF41F16BA0B620B18
:102BD000730B840BBAF09150A1F0FF0FBB1F661F5F
:102BE000771F881FC2F70EC0BA0F621F731F841FA2
:102BF00048F4879577956795B795F7959E3F08F0C8
:102C0000B0CF9395880F08F09927EE0F9795879589
:102C100008950E94B81790F09F3748F4911116F468
:102C20000C94D11760E070E080E89FE3089526F0EF
:102C30001B16611D711D811D0C944B170C9466179A
:102C40000E94211708F481E008950E9439160C941F
:102C500085170E947E1758F00E94771740F029F4DC
:102C60005F3F29F00C94451751110C94D1170C9427
:102C700074170E94961768F39923B1F3552391F3C3
:102C8000951B550BBB27AA2762177307840738F0DB
:102C90009F5F5F4F220F331F441FAA1FA9F335D038
:102CA0000E2E3AF0E0E832D091505040E695001CEC
:102CB000CAF72BD0FE2F29D0660F771F881FBB1FA6
:102CC000261737074807AB07B0E809F0BB0B802D84
:102CD000BF01FF2793585F4F3AF09E3F510578F0B0
:102CE0000C9445170C94D1175F3FE4F3983ED4F34E
:102CF000869577956795B795F7959F5FC9F7880F84
:102D0000911D9695879597F90895E1E0660F771FD5
:102D1000881FBB1F621773078407BA0720F0621B66
:102D2000730B840BBA0BEE1F88F7E09508950E9491
:102D30009E166894B1110C94D11708950E949E17A5
:102D400088F09F5798F0B92F9927B751B0F0E1F06C
:102D5000660F771F881F991F1AF0BA95C9F714C01C
:102D6000B13091F00E94D017B1E008950C94D017C3
:102D7000672F782F8827B85F39F0B93FCCF3869555
:102D800077956795B395D9F73EF4909580957095B2
:102D900061957F4F8F4F9F4F0895E89409C097FB2F
:102DA0003EF490958095709561957F4F8F4F9F4F22
:102DB0009923A9F0F92F96E9BB279395F695879566
:102DC00077956795B795F111F8CFFAF4BB0F11F429
:102DD00060FF1BC06F5F7F4F8F4F9F4F16C08823D0
:102DE00011F096E911C0772321F09EE8872F762F06
:102DF00005C0662371F096E8862F70E060E02AF047
:102E00009A95660F771F881FDAF7880F9695879532
:102E100097F908950E94B81790F09F3748F49111E0
:102E200016F00C94D11760E070E080E89FEB0895F5
:102E300026F41B16611D711D811D0C944B170C94FB
:102E40006617990F0008550FAA0BE0E8FEEF16165B
:102E50001706E807F907C0F012161306E407F5078E
:102E600098F0621B730B840B950B39F40A2661F002
:102E7000232B242B252B21F408950A2609F4A140A5
:102E8000A6958FEF811D811D089597F99F6780E8B2
:102E900070E060E00895882371F4772321F0985062
:102EA000872B762F07C0662311F499270DC0905108
:102EB000862B70E060E02AF09A95660F771F881FD6
:102EC000DAF7880F9695879597F908959F3F31F027
:102ED000915020F4879577956795B795880F911D48
:102EE0009695879597F908959FEF80EC08950024B3
:102EF0000A941616170618060906089500240A945F
:102F000012161306140605060895092E0394000CE4
:102F100011F4882352F0BB0F40F4BF2B11F460FF73
:102F200004C06F5F7F4F8F4F9F4F089557FD90589C
:102F3000440F551F59F05F3F71F04795880F97FB7D
:102F4000991F61F09F3F79F0879508951216130637
:102F50001406551FF2CF4695F1DF08C01616170666
:102F60001806991FF1CF869571056105089408959B
:102F70000E949E17A0F0BEE7B91788F4BB279F38C0
:102F800060F41616B11D672F782F8827985FF7CF4A
:102F9000869577956795B11D93959639C8F30895F1
:102FA000E894BB2766277727CB0197F908950E94FD
:102FB000211708F48FEF08950E949E1758F19E572D
:102FC00060F19851A0F0E9F0983020F5092E99278A
:102FD000660F771F881F991F0A94D1F712C0062E1B
:102FE000672F782F8827985F11F4000C07C0993F4E
:102FF000B4F38695779567959395D9F7611D711D03
:10300000811D3EF490958095709561957F4F8F4F0F
:103010009F4F089568940C94D1170C94D0170E9478
:1030200022180C9485170E94771738F00E947E179B
:1030300020F0952311F00C9445170C94741711246B
:103040000C94D1170E94961770F3959FC1F3950FBA
:1030500050E0551F629FF001729FBB27F00DB11D1C
:10306000639FAA27F00DB11DAA1F649F6627B00DAC
:10307000A11D661F829F2227B00DA11D621F739F95
:10308000B00DA11D621F839FA00D611D221F749FA3
:103090003327A00D611D231F849F600D211D822FEA
:1030A000762F6A2F11249F5750409AF0F1F0882311
:1030B0004AF0EE0FFF1FBB1F661F771F881F91503E
:1030C0005040A9F79E3F510580F00C9445170C9491
:1030D000D1175F3FE4F3983ED4F3869577956795D3
:1030E000B795F795E7959F5FC1F7FE2B880F911D68
:1030F0009695879597F9089519F416F40C9474171A
:103100000C9466170E949E17B8F39923C9F3B6F37F
:103110009F57550B87FF0E94C2180024A0E640EA83
:10312000900180585695979528F4805C660F771F1C
:10313000881F20F026173707480730F4621B730BEF
:10314000840B202931294A2BA69517940794202512
:1031500031254A2758F7660F771F881F20F026175A
:103160003707480730F4620B730B840B200D311DB9
:10317000411DA09581F7B901842F9158880F96952C
:103180008795089591505040660F771F881FD2F79A
:10319000089597FB072E16F4009407D077FD09D009
:1031A0000E94101907FC05D03EF4909581959F4F21
:1031B0000895709561957F4F0895A1E21A2EAA1B7C
:1031C000BB1BFD010DC0AA1FBB1FEE1FFF1FA217D7
:1031D000B307E407F50720F0A21BB30BE40BF50BD4
:1031E000661F771F881F991F1A9469F7609570955D
:1031F000809590959B01AC01BD01CF010895EE0F24
:10320000FF1F0590F491E02D09940E942419A59FB9
:10321000900DB49F900DA49F800D911D11240895D1
:10322000AA1BBB1B51E107C0AA1FBB1FA617B707EC
:1032300010F0A61BB70B881F991F5A95A9F7809508
:103240009095BC01CD010895A29FB001B39FC0012C
:10325000A39F700D811D1124911DB29F700D811DC2
:0A3260001124911D0895F894FFCF8A
:02326A00010061
:00000001FF
